:060000000A128A11FC2F18
:100D8A00700883120313880071083F398500080030
:100D9A00F200F101721CD22ED32ED52E7008F10763
:100DAA000310F00D0310F20C7208031DDD2EDE2E67
:100DBA00CF2E71080800F401F501701CE52EE62E0D
:100DCA00EC2E7208F4070318F50A7308F5070130C8
:100DDA000310F20DF30DFF3E031DED2E013003103B
:100DEA00F10CF00CFF3E031DF42E70087104031D74
:100DFA00FF2E002FE22E7508F1007408F00008009B
:100E0A00F100F301700803190B2F0C2F2A2F013060
:100E1A00F200132F0310F00D0130F207F01F162F06
:100E2A00172F0F2F0310F30D70087102031C1E2FCA
:100E3A001F2F222F7008F10273140310F00C0130D7
:100E4A00F202031D292F2A2F172F73080800F40016
:100E5A007408F30004300310F30CFF3E031D302F17
:100E6A007308F5000F30F5057408F6000F30F60523
:100E7A000A3075020318422F432F492F0A3076028F
:100E8A00031C482F492F4B2FFF30542F0A30F000F4
:100E9A0075080A128A11CD260A128A1176070800E5
:100EAA007030831603138F040F1D5C2F5D2F592F8B
:100EBA008316031788018901FF30831603138600FE
:100ECA00FF3087008801850181179501831203137A
:100EDA0088018501831203130608A0000708A100F0
:100EEA0020080A128A112C270A128A118312031364
:100EFA00A60021080A128A112C270A128A118312C3
:100F0A000313A500A201260A03198C2F8D2F922FF5
:100F1A00250A031D912F922F972F0130A200A301BA
:100F2A00A401D92F2608250203189C2F9D2FB72F1D
:100F3A002608F700F8017708F0007808F10025087C
:100F4A00F900FA017908F2007A08F3000A128A1104
:100F5A00E0260A128A11710883120313A40070088A
:100F6A00A300D92F26082506031DBC2FBD2FC32F8A
:100F7A0026082507A300A401A40DD92F2608031DBE
:100F8A00C72FC82FC92F922F2608F00025080A124A
:100F9A008A1105270A128A11F700F80177088312C5
:100FAA000313A3007808A40022080319DD2FDE2FFB
:100FBA00E22F880101308500EF2F2408F100230871
:100FCA00F0000A128A11C5260A128A11FE3083120B
:100FDA00031385058230F800DD30F700F70BF32F95
:100FEA00F80BF32FF82F6F2F0A128A1100288301AA
:060FFA000A128A11552FB6
:04400E00E423FF3F69
:00000001FF
